{
  "contractName": "Payroll",
  "abi": [
    {
      "constant": true,
      "inputs": [],
      "name": "totalSalary",
      "outputs": [
        {
          "name": "",
          "type": "uint256"
        }
      ],
      "payable": false,
      "stateMutability": "view",
      "type": "function"
    },
    {
      "constant": true,
      "inputs": [],
      "name": "owner",
      "outputs": [
        {
          "name": "",
          "type": "address"
        }
      ],
      "payable": false,
      "stateMutability": "view",
      "type": "function"
    },
    {
      "constant": true,
      "inputs": [
        {
          "name": "",
          "type": "address"
        }
      ],
      "name": "employees",
      "outputs": [
        {
          "name": "id",
          "type": "address"
        },
        {
          "name": "salary",
          "type": "uint256"
        },
        {
          "name": "lastPayday",
          "type": "uint256"
        }
      ],
      "payable": false,
      "stateMutability": "view",
      "type": "function"
    },
    {
      "constant": false,
      "inputs": [
        {
          "name": "newOwner",
          "type": "address"
        }
      ],
      "name": "transferOwnership",
      "outputs": [],
      "payable": false,
      "stateMutability": "nonpayable",
      "type": "function"
    },
    {
      "anonymous": false,
      "inputs": [
        {
          "indexed": true,
          "name": "previousOwner",
          "type": "address"
        },
        {
          "indexed": true,
          "name": "newOwner",
          "type": "address"
        }
      ],
      "name": "OwnershipTransferred",
      "type": "event"
    },
    {
      "constant": false,
      "inputs": [
        {
          "name": "employeeId",
          "type": "address"
        },
        {
          "name": "salary",
          "type": "uint256"
        }
      ],
      "name": "addEmployee",
      "outputs": [],
      "payable": false,
      "stateMutability": "nonpayable",
      "type": "function"
    },
    {
      "constant": false,
      "inputs": [
        {
          "name": "employeeId",
          "type": "address"
        }
      ],
      "name": "removeEmployee",
      "outputs": [
        {
          "name": "",
          "type": "uint256"
        }
      ],
      "payable": false,
      "stateMutability": "nonpayable",
      "type": "function"
    },
    {
      "constant": false,
      "inputs": [
        {
          "name": "employeeId",
          "type": "address"
        },
        {
          "name": "salary",
          "type": "uint256"
        }
      ],
      "name": "updateEmployee",
      "outputs": [],
      "payable": false,
      "stateMutability": "nonpayable",
      "type": "function"
    },
    {
      "constant": false,
      "inputs": [
        {
          "name": "oldAddress",
          "type": "address"
        },
        {
          "name": "newAddress",
          "type": "address"
        }
      ],
      "name": "changePaymentAddress",
      "outputs": [],
      "payable": false,
      "stateMutability": "nonpayable",
      "type": "function"
    },
    {
      "constant": false,
      "inputs": [],
      "name": "addFund",
      "outputs": [
        {
          "name": "",
          "type": "uint256"
        }
      ],
      "payable": true,
      "stateMutability": "payable",
      "type": "function"
    },
    {
      "constant": true,
      "inputs": [],
      "name": "calculateRunway",
      "outputs": [
        {
          "name": "",
          "type": "uint256"
        }
      ],
      "payable": false,
      "stateMutability": "view",
      "type": "function"
    },
    {
      "constant": true,
      "inputs": [],
      "name": "hasEnoughFund",
      "outputs": [
        {
          "name": "",
          "type": "bool"
        }
      ],
      "payable": false,
      "stateMutability": "view",
      "type": "function"
    },
    {
      "constant": false,
      "inputs": [],
      "name": "getPaid",
      "outputs": [],
      "payable": false,
      "stateMutability": "nonpayable",
      "type": "function"
    }
  ],
  "bytecode": "0x6060604052336000806101000a81548173ffffffffffffffffffffffffffffffffffffffff021916908373ffffffffffffffffffffffffffffffffffffffff160217905550610daa806100536000396000f3006060604052600436106100ba576000357c0100000000000000000000000000000000000000000000000000000000900463ffffffff16806323fed09e146100bf5780632e46eb1d146100ec5780634ec19512146101155780635e91d8ec1461013e5780638da5cb5b14610180578063a2f09dfa146101d5578063bc456c42146101f3578063cf41d6f81461024b578063d067894714610260578063d108177a146102e7578063e7fd9a1314610334578063f2fde38b14610376575b600080fd5b34156100ca57600080fd5b6100d26103af565b604051808215151515815260200191505060405180910390f35b34156100f757600080fd5b6100ff6103c0565b6040518082815260200191505060405180910390f35b341561012057600080fd5b6101286103c6565b6040518082815260200191505060405180910390f35b341561014957600080fd5b61017e600480803573ffffffffffffffffffffffffffffffffffffffff16906020019091908035906020019091905050610402565b005b341561018b57600080fd5b610193610570565b604051808273ffffffffffffffffffffffffffffffffffffffff1673ffffffffffffffffffffffffffffffffffffffff16815260200191505060405180910390f35b6101dd610595565b6040518082815260200191505060405180910390f35b34156101fe57600080fd5b610249600480803573ffffffffffffffffffffffffffffffffffffffff1690602001909190803573ffffffffffffffffffffffffffffffffffffffff1690602001909190505061060f565b005b341561025657600080fd5b61025e6106dd565b005b341561026b57600080fd5b610297600480803573ffffffffffffffffffffffffffffffffffffffff169060200190919050506107b3565b604051808473ffffffffffffffffffffffffffffffffffffffff1673ffffffffffffffffffffffffffffffffffffffff168152602001838152602001828152602001935050505060405180910390f35b34156102f257600080fd5b61031e600480803573ffffffffffffffffffffffffffffffffffffffff169060200190919050506107fd565b6040518082815260200191505060405180910390f35b341561033f57600080fd5b610374600480803573ffffffffffffffffffffffffffffffffffffffff169060200190919080359060200190919050506109bf565b005b341561038157600080fd5b6103ad600480803573ffffffffffffffffffffffffffffffffffffffff16906020019091905050610b9b565b005b6000806103ba6103c6565b11905090565b60015481565b60008060015411156103fe576001543073ffffffffffffffffffffffffffffffffffffffff16318115156103f657fe5b0490506103ff565b5b90565b60008060009054906101000a900473ffffffffffffffffffffffffffffffffffffffff1673ffffffffffffffffffffffffffffffffffffffff163373ffffffffffffffffffffffffffffffffffffffff1614151561045f57600080fd5b826000600260008373ffffffffffffffffffffffffffffffffffffffff1673ffffffffffffffffffffffffffffffffffffffff16815260200190815260200160002060000160009054906101000a900473ffffffffffffffffffffffffffffffffffffffff1673ffffffffffffffffffffffffffffffffffffffff16141515156104e557fe5b600260008573ffffffffffffffffffffffffffffffffffffffff1673ffffffffffffffffffffffffffffffffffffffff168152602001908152602001600020915061052f82610cf0565b8160010154600160008282540392505081905550670de0b6b3a764000083028260010181905550816001015460016000828254019250508190555050505050565b6000809054906101000a900473ffffffffffffffffffffffffffffffffffffffff1681565b60008060009054906101000a900473ffffffffffffffffffffffffffffffffffffffff1673ffffffffffffffffffffffffffffffffffffffff163373ffffffffffffffffffffffffffffffffffffffff161415156105f257600080fd5b3073ffffffffffffffffffffffffffffffffffffffff1631905090565b60008060009054906101000a900473ffffffffffffffffffffffffffffffffffffffff1673ffffffffffffffffffffffffffffffffffffffff163373ffffffffffffffffffffffffffffffffffffffff1614151561066c57600080fd5b600260008473ffffffffffffffffffffffffffffffffffffffff1673ffffffffffffffffffffffffffffffffffffffff1681526020019081526020016000206001015490506106ba836107fd565b506106d882670de0b6b3a7640000838115156106d257fe5b046109bf565b505050565b6000336000600260008373ffffffffffffffffffffffffffffffffffffffff1673ffffffffffffffffffffffffffffffffffffffff16815260200190815260200160002060000160009054906101000a900473ffffffffffffffffffffffffffffffffffffffff1673ffffffffffffffffffffffffffffffffffffffff161415151561076557fe5b600260003373ffffffffffffffffffffffffffffffffffffffff1673ffffffffffffffffffffffffffffffffffffffff16815260200190815260200160002091506107af82610cf0565b5050565b60026020528060005260406000206000915090508060000160009054906101000a900473ffffffffffffffffffffffffffffffffffffffff16908060010154908060020154905083565b6000806000809054906101000a900473ffffffffffffffffffffffffffffffffffffffff1673ffffffffffffffffffffffffffffffffffffffff163373ffffffffffffffffffffffffffffffffffffffff1614151561085b57600080fd5b826000600260008373ffffffffffffffffffffffffffffffffffffffff1673ffffffffffffffffffffffffffffffffffffffff16815260200190815260200160002060000160009054906101000a900473ffffffffffffffffffffffffffffffffffffffff1673ffffffffffffffffffffffffffffffffffffffff16141515156108e157fe5b600260008573ffffffffffffffffffffffffffffffffffffffff1673ffffffffffffffffffffffffffffffffffffffff1681526020019081526020016000209150816001015460016000828254039250508190555061093f82610cf0565b600260008573ffffffffffffffffffffffffffffffffffffffff1673ffffffffffffffffffffffffffffffffffffffff168152602001908152602001600020600080820160006101000a81549073ffffffffffffffffffffffffffffffffffffffff02191690556001820160009055600282016000905550505050919050565b60008060009054906101000a900473ffffffffffffffffffffffffffffffffffffffff1673ffffffffffffffffffffffffffffffffffffffff163373ffffffffffffffffffffffffffffffffffffffff16141515610a1c57600080fd5b600260008473ffffffffffffffffffffffffffffffffffffffff1673ffffffffffffffffffffffffffffffffffffffff168152602001908152602001600020905060008160000160009054906101000a900473ffffffffffffffffffffffffffffffffffffffff1673ffffffffffffffffffffffffffffffffffffffff16141515610aa357fe5b6060604051908101604052808473ffffffffffffffffffffffffffffffffffffffff168152602001670de0b6b3a76400008402815260200142815250600260008573ffffffffffffffffffffffffffffffffffffffff1673ffffffffffffffffffffffffffffffffffffffff16815260200190815260200160002060008201518160000160006101000a81548173ffffffffffffffffffffffffffffffffffffffff021916908373ffffffffffffffffffffffffffffffffffffffff1602179055506020820151816001015560408201518160020155905050670de0b6b3a76400008202600160008282540192505081905550505050565b6000809054906101000a900473ffffffffffffffffffffffffffffffffffffffff1673ffffffffffffffffffffffffffffffffffffffff163373ffffffffffffffffffffffffffffffffffffffff16141515610bf657600080fd5b600073ffffffffffffffffffffffffffffffffffffffff168173ffffffffffffffffffffffffffffffffffffffff1614151515610c3257600080fd5b8073ffffffffffffffffffffffffffffffffffffffff166000809054906101000a900473ffffffffffffffffffffffffffffffffffffffff1673ffffffffffffffffffffffffffffffffffffffff167f8be0079c531659141344cd1fd0a4f28419497f9722a3daafe3b4186f6b6457e060405160405180910390a3806000806101000a81548173ffffffffffffffffffffffffffffffffffffffff021916908373ffffffffffffffffffffffffffffffffffffffff16021790555050565b6000600a82600201544203836001015402811515610d0a57fe5b0490508160000160009054906101000a900473ffffffffffffffffffffffffffffffffffffffff1673ffffffffffffffffffffffffffffffffffffffff166108fc829081150290604051600060405180830381858888f193505050501515610d7157600080fd5b42826002018190555050505600a165627a7a72305820d9d1ba115cb516c590d133fd959c41ece7c3f1c5e1a04343910bb39162742be20029",
  "source": "pragma solidity ^0.4.14;\nimport './Ownable.sol';\ncontract Payroll is Ownable {\n    struct Employee {\n        address id;\n        uint salary;\n        uint lastPayday;\n    }\n    uint public totalSalary;\n    uint constant payDuration = 10 seconds;\n \n    mapping(address => Employee) public employees;\n\n    modifier employeeIdExists(address employeeId)  {\n        assert(employees[employeeId].id != 0);\n        _;\n    }\n\n    function _partialPaid(Employee storage employee) private {\n        uint toPay = employee.salary * (now - employee.lastPayday) / payDuration;\n        employee.id.transfer(toPay);\n        employee.lastPayday = now;\n    }\n    \n    function addEmployee(address employeeId, uint salary) public onlyOwner {\n        Employee storage employee = employees[employeeId];\n        assert(employee.id == 0);\n        employees[employeeId] = Employee(employeeId, salary * 1 ether, now);\n        totalSalary += salary * 1 ether;\n    }\n    \n    function removeEmployee(address employeeId) public onlyOwner\n        employeeIdExists(employeeId) returns(uint)  {\n        Employee storage e = employees[employeeId];\n        totalSalary -= e.salary;\n        _partialPaid(e);\n        delete employees[employeeId];\n    }\n    \n    function updateEmployee(address employeeId, uint salary) public onlyOwner \n        employeeIdExists(employeeId) {\n        Employee storage employee = employees[employeeId];\n        _partialPaid(employee);\n        totalSalary -= employee.salary;\n        employee.salary = salary * 1 ether;\n        totalSalary += employee.salary;\n    }\n    \n    function changePaymentAddress(address oldAddress, address newAddress) public onlyOwner\n        {\n        uint salary = employees[oldAddress].salary;\n        removeEmployee(oldAddress);\n        addEmployee(newAddress, salary / 1 ether);\n    }\n    \n    function addFund() public payable onlyOwner returns (uint)  {\n        return this.balance;\n    }\n    \n    function calculateRunway() public view returns (uint) {\n        if(totalSalary > 0)    \n            return this.balance / totalSalary;\n    }\n    \n    function hasEnoughFund() public view returns (bool) {\n        return calculateRunway() > 0;\n    }\n    \n    function getPaid() public employeeIdExists(msg.sender) {\n        Employee storage employee = employees[msg.sender];\n        _partialPaid(employee);\n    }\n}",
  "sourcePath": "/home/juicebox/Team-B/Lesson-4/assignment/payroll/contracts/Payroll.sol",
  "compiler": {
    "name": "solc",
    "version": "0.4.19+commit.c4cbbb05.Emscripten.clang"
  },
  "schemaVersion": "2.0.0",
  "updatedAt": "2018-03-27T08:36:30.529Z"
}